{
  "contractName": "Bank",
  "abi": [
    {
      "inputs": [],
      "stateMutability": "nonpayable",
      "type": "constructor"
    },
    {
      "anonymous": false,
      "inputs": [
        {
          "indexed": true,
          "internalType": "address",
          "name": "owner",
          "type": "address"
        },
        {
          "indexed": true,
          "internalType": "address",
          "name": "spender",
          "type": "address"
        },
        {
          "indexed": false,
          "internalType": "uint256",
          "name": "value",
          "type": "uint256"
        }
      ],
      "name": "Approval",
      "type": "event"
    },
    {
      "anonymous": false,
      "inputs": [
        {
          "indexed": true,
          "internalType": "address",
          "name": "from",
          "type": "address"
        },
        {
          "indexed": true,
          "internalType": "address",
          "name": "to",
          "type": "address"
        },
        {
          "indexed": false,
          "internalType": "uint256",
          "name": "value",
          "type": "uint256"
        }
      ],
      "name": "Transfer",
      "type": "event"
    },
    {
      "anonymous": false,
      "inputs": [
        {
          "indexed": false,
          "internalType": "address",
          "name": "",
          "type": "address"
        },
        {
          "indexed": false,
          "internalType": "uint256",
          "name": "",
          "type": "uint256"
        }
      ],
      "name": "evDeposit",
      "type": "event"
    },
    {
      "anonymous": false,
      "inputs": [
        {
          "indexed": false,
          "internalType": "address",
          "name": "",
          "type": "address"
        },
        {
          "indexed": false,
          "internalType": "uint256",
          "name": "",
          "type": "uint256"
        }
      ],
      "name": "evWithdraw",
      "type": "event"
    },
    {
      "inputs": [
        {
          "internalType": "address",
          "name": "owner",
          "type": "address"
        },
        {
          "internalType": "address",
          "name": "spender",
          "type": "address"
        }
      ],
      "name": "allowance",
      "outputs": [
        {
          "internalType": "uint256",
          "name": "",
          "type": "uint256"
        }
      ],
      "stateMutability": "view",
      "type": "function",
      "constant": true
    },
    {
      "inputs": [
        {
          "internalType": "address",
          "name": "spender",
          "type": "address"
        },
        {
          "internalType": "uint256",
          "name": "amount",
          "type": "uint256"
        }
      ],
      "name": "approve",
      "outputs": [
        {
          "internalType": "bool",
          "name": "",
          "type": "bool"
        }
      ],
      "stateMutability": "nonpayable",
      "type": "function"
    },
    {
      "inputs": [
        {
          "internalType": "address",
          "name": "account",
          "type": "address"
        }
      ],
      "name": "balanceOf",
      "outputs": [
        {
          "internalType": "uint256",
          "name": "",
          "type": "uint256"
        }
      ],
      "stateMutability": "view",
      "type": "function",
      "constant": true
    },
    {
      "inputs": [],
      "name": "decimals",
      "outputs": [
        {
          "internalType": "uint8",
          "name": "",
          "type": "uint8"
        }
      ],
      "stateMutability": "view",
      "type": "function",
      "constant": true
    },
    {
      "inputs": [
        {
          "internalType": "address",
          "name": "spender",
          "type": "address"
        },
        {
          "internalType": "uint256",
          "name": "subtractedValue",
          "type": "uint256"
        }
      ],
      "name": "decreaseAllowance",
      "outputs": [
        {
          "internalType": "bool",
          "name": "",
          "type": "bool"
        }
      ],
      "stateMutability": "nonpayable",
      "type": "function"
    },
    {
      "inputs": [
        {
          "internalType": "address",
          "name": "spender",
          "type": "address"
        },
        {
          "internalType": "uint256",
          "name": "addedValue",
          "type": "uint256"
        }
      ],
      "name": "increaseAllowance",
      "outputs": [
        {
          "internalType": "bool",
          "name": "",
          "type": "bool"
        }
      ],
      "stateMutability": "nonpayable",
      "type": "function"
    },
    {
      "inputs": [],
      "name": "name",
      "outputs": [
        {
          "internalType": "string",
          "name": "",
          "type": "string"
        }
      ],
      "stateMutability": "view",
      "type": "function",
      "constant": true
    },
    {
      "inputs": [],
      "name": "symbol",
      "outputs": [
        {
          "internalType": "string",
          "name": "",
          "type": "string"
        }
      ],
      "stateMutability": "view",
      "type": "function",
      "constant": true
    },
    {
      "inputs": [],
      "name": "totalSupply",
      "outputs": [
        {
          "internalType": "uint256",
          "name": "",
          "type": "uint256"
        }
      ],
      "stateMutability": "view",
      "type": "function",
      "constant": true
    },
    {
      "inputs": [
        {
          "internalType": "address",
          "name": "recipient",
          "type": "address"
        },
        {
          "internalType": "uint256",
          "name": "amount",
          "type": "uint256"
        }
      ],
      "name": "transfer",
      "outputs": [
        {
          "internalType": "bool",
          "name": "",
          "type": "bool"
        }
      ],
      "stateMutability": "nonpayable",
      "type": "function"
    },
    {
      "inputs": [
        {
          "internalType": "address",
          "name": "sender",
          "type": "address"
        },
        {
          "internalType": "address",
          "name": "recipient",
          "type": "address"
        },
        {
          "internalType": "uint256",
          "name": "amount",
          "type": "uint256"
        }
      ],
      "name": "transferFrom",
      "outputs": [
        {
          "internalType": "bool",
          "name": "",
          "type": "bool"
        }
      ],
      "stateMutability": "nonpayable",
      "type": "function"
    },
    {
      "inputs": [],
      "name": "deposit",
      "outputs": [],
      "stateMutability": "payable",
      "type": "function",
      "payable": true
    },
    {
      "inputs": [
        {
          "internalType": "uint256",
          "name": "_amount",
          "type": "uint256"
        }
      ],
      "name": "withdraw",
      "outputs": [],
      "stateMutability": "nonpayable",
      "type": "function"
    },
    {
      "inputs": [],
      "name": "tSupply",
      "outputs": [
        {
          "internalType": "uint256",
          "name": "",
          "type": "uint256"
        }
      ],
      "stateMutability": "view",
      "type": "function",
      "constant": true
    }
  ],
  "bytecode": "0x60806040523480156200001157600080fd5b506040518060400160405280600d81526020017f57524150504544204554484552000000000000000000000000000000000000008152506040518060400160405280600481526020017f5745544800000000000000000000000000000000000000000000000000000000815250816003908051906020019062000096929190620000b8565b508060049080519060200190620000af929190620000b8565b505050620001cd565b828054620000c69062000197565b90600052602060002090601f016020900481019282620000ea576000855562000136565b82601f106200010557805160ff191683800117855562000136565b8280016001018555821562000136579182015b828111156200013557825182559160200191906001019062000118565b5b50905062000145919062000149565b5090565b5b80821115620001645760008160009055506001016200014a565b5090565b7f4e487b7100000000000000000000000000000000000000000000000000000000600052602260045260246000fd5b60006002820490506001821680620001b057607f821691505b60208210811415620001c757620001c662000168565b5b50919050565b611bc380620001dd6000396000f3fe6080604052600436106100dd5760003560e01c806370a082311161007f578063a457c2d711610059578063a457c2d7146102d6578063a9059cbb14610313578063d0e30db014610350578063dd62ed3e1461035a576100dd565b806370a082311461024357806393ea49831461028057806395d89b41146102ab576100dd565b806323b872dd116100bb57806323b872dd146101755780632e1a7d4d146101b2578063313ce567146101db5780633950935114610206576100dd565b806306fdde03146100e2578063095ea7b31461010d57806318160ddd1461014a575b600080fd5b3480156100ee57600080fd5b506100f7610397565b60405161010491906111c2565b60405180910390f35b34801561011957600080fd5b50610134600480360381019061012f919061127d565b610429565b60405161014191906112d8565b60405180910390f35b34801561015657600080fd5b5061015f610447565b60405161016c9190611302565b60405180910390f35b34801561018157600080fd5b5061019c6004803603810190610197919061131d565b610451565b6040516101a991906112d8565b60405180910390f35b3480156101be57600080fd5b506101d960048036038101906101d49190611370565b610549565b005b3480156101e757600080fd5b506101f0610621565b6040516101fd91906113b9565b60405180910390f35b34801561021257600080fd5b5061022d6004803603810190610228919061127d565b61062a565b60405161023a91906112d8565b60405180910390f35b34801561024f57600080fd5b5061026a600480360381019061026591906113d4565b6106d6565b6040516102779190611302565b60405180910390f35b34801561028c57600080fd5b5061029561071e565b6040516102a29190611302565b60405180910390f35b3480156102b757600080fd5b506102c061072d565b6040516102cd91906111c2565b60405180910390f35b3480156102e257600080fd5b506102fd60048036038101906102f8919061127d565b6107bf565b60405161030a91906112d8565b60405180910390f35b34801561031f57600080fd5b5061033a6004803603810190610335919061127d565b6108aa565b60405161034791906112d8565b60405180910390f35b6103586108c8565b005b34801561036657600080fd5b50610381600480360381019061037c9190611401565b61090d565b60405161038e9190611302565b60405180910390f35b6060600380546103a690611470565b80601f01602080910402602001604051908101604052809291908181526020018280546103d290611470565b801561041f5780601f106103f45761010080835404028352916020019161041f565b820191906000526020600020905b81548152906001019060200180831161040257829003601f168201915b5050505050905090565b600061043d610436610994565b848461099c565b6001905092915050565b6000600254905090565b600061045e848484610b67565b6000600160008673ffffffffffffffffffffffffffffffffffffffff1673ffffffffffffffffffffffffffffffffffffffff16815260200190815260200160002060006104a9610994565b73ffffffffffffffffffffffffffffffffffffffff1673ffffffffffffffffffffffffffffffffffffffff16815260200190815260200160002054905082811015610529576040517f08c379a000000000000000000000000000000000000000000000000000000000815260040161052090611514565b60405180910390fd5b61053d85610535610994565b85840361099c565b60019150509392505050565b80610553336106d6565b1015610594576040517f08c379a000000000000000000000000000000000000000000000000000000000815260040161058b90611580565b60405180910390fd5b61059e3382610de8565b3373ffffffffffffffffffffffffffffffffffffffff166108fc829081150290604051600060405180830381858888f193505050501580156105e4573d6000803e3d6000fd5b507fbcd11e479bb99a9e0f6a09207f46ad04d3b1619f981770e291df2a5862b3053e33826040516106169291906115af565b60405180910390a150565b60006012905090565b60006106cc610637610994565b848460016000610645610994565b73ffffffffffffffffffffffffffffffffffffffff1673ffffffffffffffffffffffffffffffffffffffff16815260200190815260200160002060008873ffffffffffffffffffffffffffffffffffffffff1673ffffffffffffffffffffffffffffffffffffffff168152602001908152602001600020546106c79190611607565b61099c565b6001905092915050565b60008060008373ffffffffffffffffffffffffffffffffffffffff1673ffffffffffffffffffffffffffffffffffffffff168152602001908152602001600020549050919050565b6000610728610447565b905090565b60606004805461073c90611470565b80601f016020809104026020016040519081016040528092919081815260200182805461076890611470565b80156107b55780601f1061078a576101008083540402835291602001916107b5565b820191906000526020600020905b81548152906001019060200180831161079857829003601f168201915b5050505050905090565b600080600160006107ce610994565b73ffffffffffffffffffffffffffffffffffffffff1673ffffffffffffffffffffffffffffffffffffffff16815260200190815260200160002060008573ffffffffffffffffffffffffffffffffffffffff1673ffffffffffffffffffffffffffffffffffffffff1681526020019081526020016000205490508281101561088b576040517f08c379a0000000000000000000000000000000000000000000000000000000008152600401610882906116cf565b60405180910390fd5b61089f610896610994565b8585840361099c565b600191505092915050565b60006108be6108b7610994565b8484610b67565b6001905092915050565b6108d23334610fbf565b7f0dc9ef0143bcfb5a188f69acb8cef53c0e17125e1a85f8f4ce3db65b3debe81633346040516109039291906115af565b60405180910390a1565b6000600160008473ffffffffffffffffffffffffffffffffffffffff1673ffffffffffffffffffffffffffffffffffffffff16815260200190815260200160002060008373ffffffffffffffffffffffffffffffffffffffff1673ffffffffffffffffffffffffffffffffffffffff16815260200190815260200160002054905092915050565b600033905090565b600073ffffffffffffffffffffffffffffffffffffffff168373ffffffffffffffffffffffffffffffffffffffff161415610a0c576040517f08c379a0000000000000000000000000000000000000000000000000000000008152600401610a0390611761565b60405180910390fd5b600073ffffffffffffffffffffffffffffffffffffffff168273ffffffffffffffffffffffffffffffffffffffff161415610a7c576040517f08c379a0000000000000000000000000000000000000000000000000000000008152600401610a73906117f3565b60405180910390fd5b80600160008573ffffffffffffffffffffffffffffffffffffffff1673ffffffffffffffffffffffffffffffffffffffff16815260200190815260200160002060008473ffffffffffffffffffffffffffffffffffffffff1673ffffffffffffffffffffffffffffffffffffffff168152602001908152602001600020819055508173ffffffffffffffffffffffffffffffffffffffff168373ffffffffffffffffffffffffffffffffffffffff167f8c5be1e5ebec7d5bd14f71427d1e84f3dd0314c0f7b2291e5b200ac8c7c3b92583604051610b5a9190611302565b60405180910390a3505050565b600073ffffffffffffffffffffffffffffffffffffffff168373ffffffffffffffffffffffffffffffffffffffff161415610bd7576040517f08c379a0000000000000000000000000000000000000000000000000000000008152600401610bce90611885565b60405180910390fd5b600073ffffffffffffffffffffffffffffffffffffffff168273ffffffffffffffffffffffffffffffffffffffff161415610c47576040517f08c379a0000000000000000000000000000000000000000000000000000000008152600401610c3e90611917565b60405180910390fd5b610c5283838361111f565b60008060008573ffffffffffffffffffffffffffffffffffffffff1673ffffffffffffffffffffffffffffffffffffffff16815260200190815260200160002054905081811015610cd8576040517f08c379a0000000000000000000000000000000000000000000000000000000008152600401610ccf906119a9565b60405180910390fd5b8181036000808673ffffffffffffffffffffffffffffffffffffffff1673ffffffffffffffffffffffffffffffffffffffff16815260200190815260200160002081905550816000808573ffffffffffffffffffffffffffffffffffffffff1673ffffffffffffffffffffffffffffffffffffffff1681526020019081526020016000206000828254610d6b9190611607565b925050819055508273ffffffffffffffffffffffffffffffffffffffff168473ffffffffffffffffffffffffffffffffffffffff167fddf252ad1be2c89b69c2b068fc378daa952ba7f163c4a11628f55a4df523b3ef84604051610dcf9190611302565b60405180910390a3610de2848484611124565b50505050565b600073ffffffffffffffffffffffffffffffffffffffff168273ffffffffffffffffffffffffffffffffffffffff161415610e58576040517f08c379a0000000000000000000000000000000000000000000000000000000008152600401610e4f90611a3b565b60405180910390fd5b610e648260008361111f565b60008060008473ffffffffffffffffffffffffffffffffffffffff1673ffffffffffffffffffffffffffffffffffffffff16815260200190815260200160002054905081811015610eea576040517f08c379a0000000000000000000000000000000000000000000000000000000008152600401610ee190611acd565b60405180910390fd5b8181036000808573ffffffffffffffffffffffffffffffffffffffff1673ffffffffffffffffffffffffffffffffffffffff168152602001908152602001600020819055508160026000828254610f419190611aed565b92505081905550600073ffffffffffffffffffffffffffffffffffffffff168373ffffffffffffffffffffffffffffffffffffffff167fddf252ad1be2c89b69c2b068fc378daa952ba7f163c4a11628f55a4df523b3ef84604051610fa69190611302565b60405180910390a3610fba83600084611124565b505050565b600073ffffffffffffffffffffffffffffffffffffffff168273ffffffffffffffffffffffffffffffffffffffff16141561102f576040517f08c379a000000000000000000000000000000000000000000000000000000000815260040161102690611b6d565b60405180910390fd5b61103b6000838361111f565b806002600082825461104d9190611607565b92505081905550806000808473ffffffffffffffffffffffffffffffffffffffff1673ffffffffffffffffffffffffffffffffffffffff16815260200190815260200160002060008282546110a29190611607565b925050819055508173ffffffffffffffffffffffffffffffffffffffff16600073ffffffffffffffffffffffffffffffffffffffff167fddf252ad1be2c89b69c2b068fc378daa952ba7f163c4a11628f55a4df523b3ef836040516111079190611302565b60405180910390a361111b60008383611124565b5050565b505050565b505050565b600081519050919050565b600082825260208201905092915050565b60005b83811015611163578082015181840152602081019050611148565b83811115611172576000848401525b50505050565b6000601f19601f8301169050919050565b600061119482611129565b61119e8185611134565b93506111ae818560208601611145565b6111b781611178565b840191505092915050565b600060208201905081810360008301526111dc8184611189565b905092915050565b600080fd5b600073ffffffffffffffffffffffffffffffffffffffff82169050919050565b6000611214826111e9565b9050919050565b61122481611209565b811461122f57600080fd5b50565b6000813590506112418161121b565b92915050565b6000819050919050565b61125a81611247565b811461126557600080fd5b50565b60008135905061127781611251565b92915050565b60008060408385031215611294576112936111e4565b5b60006112a285828601611232565b92505060206112b385828601611268565b9150509250929050565b60008115159050919050565b6112d2816112bd565b82525050565b60006020820190506112ed60008301846112c9565b92915050565b6112fc81611247565b82525050565b600060208201905061131760008301846112f3565b92915050565b600080600060608486031215611336576113356111e4565b5b600061134486828701611232565b935050602061135586828701611232565b925050604061136686828701611268565b9150509250925092565b600060208284031215611386576113856111e4565b5b600061139484828501611268565b91505092915050565b600060ff82169050919050565b6113b38161139d565b82525050565b60006020820190506113ce60008301846113aa565b92915050565b6000602082840312156113ea576113e96111e4565b5b60006113f884828501611232565b91505092915050565b60008060408385031215611418576114176111e4565b5b600061142685828601611232565b925050602061143785828601611232565b9150509250929050565b7f4e487b7100000000000000000000000000000000000000000000000000000000600052602260045260246000fd5b6000600282049050600182168061148857607f821691505b6020821081141561149c5761149b611441565b5b50919050565b7f45524332303a207472616e7366657220616d6f756e742065786365656473206160008201527f6c6c6f77616e6365000000000000000000000000000000000000000000000000602082015250565b60006114fe602883611134565b9150611509826114a2565b604082019050919050565b6000602082019050818103600083015261152d816114f1565b9050919050565b7f596f7520646f6e2274206861766520656e6f7567682057455448530000000000600082015250565b600061156a601b83611134565b915061157582611534565b602082019050919050565b600060208201905081810360008301526115998161155d565b9050919050565b6115a981611209565b82525050565b60006040820190506115c460008301856115a0565b6115d160208301846112f3565b9392505050565b7f4e487b7100000000000000000000000000000000000000000000000000000000600052601160045260246000fd5b600061161282611247565b915061161d83611247565b9250827fffffffffffffffffffffffffffffffffffffffffffffffffffffffffffffffff03821115611652576116516115d8565b5b828201905092915050565b7f45524332303a2064656372656173656420616c6c6f77616e63652062656c6f7760008201527f207a65726f000000000000000000000000000000000000000000000000000000602082015250565b60006116b9602583611134565b91506116c48261165d565b604082019050919050565b600060208201905081810360008301526116e8816116ac565b9050919050565b7f45524332303a20617070726f76652066726f6d20746865207a65726f2061646460008201527f7265737300000000000000000000000000000000000000000000000000000000602082015250565b600061174b602483611134565b9150611756826116ef565b604082019050919050565b6000602082019050818103600083015261177a8161173e565b9050919050565b7f45524332303a20617070726f766520746f20746865207a65726f20616464726560008201527f7373000000000000000000000000000000000000000000000000000000000000602082015250565b60006117dd602283611134565b91506117e882611781565b604082019050919050565b6000602082019050818103600083015261180c816117d0565b9050919050565b7f45524332303a207472616e736665722066726f6d20746865207a65726f20616460008201527f6472657373000000000000000000000000000000000000000000000000000000602082015250565b600061186f602583611134565b915061187a82611813565b604082019050919050565b6000602082019050818103600083015261189e81611862565b9050919050565b7f45524332303a207472616e7366657220746f20746865207a65726f206164647260008201527f6573730000000000000000000000000000000000000000000000000000000000602082015250565b6000611901602383611134565b915061190c826118a5565b604082019050919050565b60006020820190508181036000830152611930816118f4565b9050919050565b7f45524332303a207472616e7366657220616d6f756e742065786365656473206260008201527f616c616e63650000000000000000000000000000000000000000000000000000602082015250565b6000611993602683611134565b915061199e82611937565b604082019050919050565b600060208201905081810360008301526119c281611986565b9050919050565b7f45524332303a206275726e2066726f6d20746865207a65726f2061646472657360008201527f7300000000000000000000000000000000000000000000000000000000000000602082015250565b6000611a25602183611134565b9150611a30826119c9565b604082019050919050565b60006020820190508181036000830152611a5481611a18565b9050919050565b7f45524332303a206275726e20616d6f756e7420657863656564732062616c616e60008201527f6365000000000000000000000000000000000000000000000000000000000000602082015250565b6000611ab7602283611134565b9150611ac282611a5b565b604082019050919050565b60006020820190508181036000830152611ae681611aaa565b9050919050565b6000611af882611247565b9150611b0383611247565b925082821015611b1657611b156115d8565b5b828203905092915050565b7f45524332303a206d696e7420746f20746865207a65726f206164647265737300600082015250565b6000611b57601f83611134565b9150611b6282611b21565b602082019050919050565b60006020820190508181036000830152611b8681611b4a565b905091905056fea26469706673582212202915abdfb067b55aec39cf382a7f162711ff0c6c326ba075e97d5f9555ebf1cb64736f6c634300080a0033",
  "immutableReferences": {},
  "source": "// SPDX-License-Identifier: MIT\npragma solidity ^0.8.10;\n\nimport \"@openzeppelin/contracts/token/ERC20/ERC20.sol\";\n\ncontract Bank is ERC20 {\n    constructor() ERC20(\"WRAPPED ETHER\", \"WETH\") {}\n\n    event evDeposit(address, uint256);\n    event evWithdraw(address, uint256);\n\n    function deposit() external payable {\n        // payable(address(this)).transfer(msg.value);\n        _mint(msg.sender, msg.value);\n        emit evDeposit(msg.sender, msg.value);\n    }\n\n    function withdraw(uint256 _amount) external {\n        require(\n            balanceOf(msg.sender) >= _amount,\n            'You don\"t have enough WETHS'\n        );\n        _burn(msg.sender, _amount);\n        payable(msg.sender).transfer(_amount);\n        emit evWithdraw(msg.sender, _amount);\n    }\n\n    function tSupply() public view returns (uint256) {\n        return totalSupply();\n    }\n}\n",
  "sourcePath": "/Volumes/MacDados/reactprojects/bank/contracts/Bank.sol",
  "compiler": {
    "name": "solc",
    "version": "0.8.10+commit.fc410830.Emscripten.clang"
  },
  "schemaVersion": "3.4.4",
  "updatedAt": "2022-01-31T01:28:28.353Z",
  "networkType": "ethereum",
  "devdoc": {
    "kind": "dev",
    "methods": {
      "allowance(address,address)": {
        "details": "See {IERC20-allowance}."
      },
      "approve(address,uint256)": {
        "details": "See {IERC20-approve}. Requirements: - `spender` cannot be the zero address."
      },
      "balanceOf(address)": {
        "details": "See {IERC20-balanceOf}."
      },
      "decimals()": {
        "details": "Returns the number of decimals used to get its user representation. For example, if `decimals` equals `2`, a balance of `505` tokens should be displayed to a user as `5.05` (`505 / 10 ** 2`). Tokens usually opt for a value of 18, imitating the relationship between Ether and Wei. This is the value {ERC20} uses, unless this function is overridden; NOTE: This information is only used for _display_ purposes: it in no way affects any of the arithmetic of the contract, including {IERC20-balanceOf} and {IERC20-transfer}."
      },
      "decreaseAllowance(address,uint256)": {
        "details": "Atomically decreases the allowance granted to `spender` by the caller. This is an alternative to {approve} that can be used as a mitigation for problems described in {IERC20-approve}. Emits an {Approval} event indicating the updated allowance. Requirements: - `spender` cannot be the zero address. - `spender` must have allowance for the caller of at least `subtractedValue`."
      },
      "increaseAllowance(address,uint256)": {
        "details": "Atomically increases the allowance granted to `spender` by the caller. This is an alternative to {approve} that can be used as a mitigation for problems described in {IERC20-approve}. Emits an {Approval} event indicating the updated allowance. Requirements: - `spender` cannot be the zero address."
      },
      "name()": {
        "details": "Returns the name of the token."
      },
      "symbol()": {
        "details": "Returns the symbol of the token, usually a shorter version of the name."
      },
      "totalSupply()": {
        "details": "See {IERC20-totalSupply}."
      },
      "transfer(address,uint256)": {
        "details": "See {IERC20-transfer}. Requirements: - `recipient` cannot be the zero address. - the caller must have a balance of at least `amount`."
      },
      "transferFrom(address,address,uint256)": {
        "details": "See {IERC20-transferFrom}. Emits an {Approval} event indicating the updated allowance. This is not required by the EIP. See the note at the beginning of {ERC20}. Requirements: - `sender` and `recipient` cannot be the zero address. - `sender` must have a balance of at least `amount`. - the caller must have allowance for ``sender``'s tokens of at least `amount`."
      }
    },
    "version": 1
  },
  "userdoc": {
    "kind": "user",
    "methods": {},
    "version": 1
  }
}